:020000040800F2
:10000000280B0020050100081524000889160008A7
:10001000A521000861100008233900080000000035
:10002000000000000000000000000000312A00086D
:10003000DD1100080000000015260008452B00080F
:100040001F0100081F0100081F010008A129000866
:100050001F0100081F0100081F0100081F01000800
:100060001F0100081F0100081F0100081F010008F0
:100070001F0100081F0100081F0100081F010008E0
:100080001F0100081F0100081F0100081F010008D0
:100090001F0100081F0100081F0100081F010008C0
:1000A0001F010008152C00081F0100081F0100088F
:1000B000A12C00081F0100081F0100081F010008F3
:1000C0001F0100081F0100081F0100081F01000890
:1000D0001F010008953600081F010008B53600080A
:1000E0001F0100081F0100081F010008DFF810D0E1
:1000F00000F0C4FC00480047514C0008AFF30080FA
:10010000280B00200648804706480047FEE7FEE728
:10011000FEE7FEE7FEE7FEE7FEE7FEE7FEE7FEE7B7
:10012000492B0008ED00000838B5D0E90221491E2E
:1001300001EB410102EBC1014268C1EB011102EB8D
:1001400081010268C1EB011102EB8102D0E90431A7
:1001500001EB410103EB81013023A1F5527191FBC9
:10016000F3F4174D6C4302EBC41291FBF3F403FB61
:10017000141100921A2902DB124B1A4400920C222D
:1001800091FBF2F3104C6343009C04EBC313009308
:1001900091FBF2F302FB13110C4A08E0491E40F2F6
:1001A000A324535C6343009C04EBC3130093002916
:1001B000F4DC0146684600F0F3FA009838BD000010
:1001C0003F0C0F008051010067C2030044FD00088E
:1001D00040EA01039B0703D009E008C9121F08C0C9
:1001E000042AFAD203E011F8013B00F8013B521E49
:1001F000F9D2704730B505462A460B4612F8010B76
:1002000013F8014B08B1A042F8D01CB1002802D06D
:100210006D1CF1E7284630BD421C10F8011B002977
:10022000FBD1801A704710B5002200E0521C835C9D
:100230008C5CA34201D1002BF8D1D8B2E1B2401AB4
:1002400010BD70B5064603F059FC046805460A2245
:100250000021304600F0EAFA2C6070BD30B480EA2C
:10026000010202F0004530F0004221F0004013D0BE
:1002700090B1C30DD40DC2F31601C0F31600E41AF9
:1002800041F4000140F400027D34914201D3641C2A
:1002900000E04900002C02DA30BC002070474FF427
:1002A00000000023914201D3891A034340084FEA1A
:1002B0004101F7D151B1914202D14FF0004105E027
:1002C00002D24FF0010101E06FF0010103EBC450D5
:1002D000284430BC00F0E2BA2DE9FE4F804681EAA6
:1002E0000300C00F0C46009021F0004123F00045B0
:1002F000B8EB0200A94105D24046214690461C4673
:100300000B46024623F00040104347D0270DC7F3A9
:100310000A00C3F30A510290401A019040286BDA98
:10032000C3F3130040F4801B0098924620B10023D1
:10033000D2EB030A63EB0B0B01985946C0F1400264
:10034000504600F006FA06460D4650465946019AB8
:1003500000F00EFA10EB08006141002487EA115208
:1003600084EAE7731A4340D0009A62B3019A012AE3
:100370004FEA075215DC001B61EB02014FF000420F
:1003800002EA0752CDE90042001C41F580113246D5
:100390002B4600F0C9FA03B0BDE8F08F4046214675
:1003A000F9E7001B61EB0201001C41F58013001806
:1003B0005B412018A2F5001747EB030140EAD57016
:1003C000B6196D4111E06D084FEA360645EAC07571
:1003D0004FEA0752001B61EB0201001C41F580113E
:1003E00049084FEA30000019514132462B4603B00C
:1003F000BDE8F04F00F089BA0098012240000023C8
:10040000D0EB020263EBE073009821464FEAE07400
:10041000B8EB000061EB0401E9E783F000435BE720
:1004200081F0004158E72DE9FE4F81EA030404F012
:10043000004421F0004100944FF0000B23F00043F2
:1004400050EA01045ED052EA03045BD0C3F30A54BD
:10045000C1F30A552C44A4F2F3340194A0FB0254D6
:10046000C1F3130141F48011C3F3130343F4801368
:1004700001FB024400FB034E840A970A44EA8154BC
:1004800047EA8357A4FB076802958D0A05FB078599
:100490004FEA932C04FB0C542705029D4FEA0658A3
:1004A00047EA1637B5EB08056EEB070C870E920E80
:1004B00047EA811742EA8312A7FB0201B6EB0B0160
:1004C00064EB00042B0D43EA0C335E1844EB1C5024
:1004D000DA465146E7FB0201C5F313044FEA0B333A
:1004E00043EA14534FEA0432019C43EA0603A4F1A1
:1004F0000C040294009CCDE900B400F015FA03B09E
:10050000BDE8F08F00200146F9E72DE9F04D81EAC2
:10051000030404F0004B21F0004514464FF0000A9C
:1005200023F0004150EA050220D054EA01021DD018
:10053000C5F30A570246C5F31303C1F31300C1F311
:100540000A5640F4801543F48013A7EB0608101BED
:10055000D64608F2FD3873EB050002D308F1010816
:1005600001E092185B41B8F1000F03DA0020014668
:10057000BDE8F08D00204FF48011064684460EE061
:10058000171B73EB050705D3121B63EB050306432B
:100590004CEA010C49084FEA300092185B4150EADE
:1005A0000107EDD152EA030012D082EA040083EA87
:1005B0000501084305D0101BAB4106D201220023E0
:1005C00006E000224FF0004302E06FF001025310FA
:1005D0001AEB06004CEB085110EB0A0041EB0B0143
:1005E000BDE8F04D00F091B996230022114600F0CD
:1005F0005EB90EB5C10F80EAE0700844CA07002159
:1006000040F233438DE80E000A460B4600F08CF9A9
:1006100003B000BD20F00040C10DC0F3160040F44F
:1006200000007F2901DA00207047962903DCC1F120
:100630009601C840704796398840704700F00042E4
:1006400030F000400AD0C10D01F56071C0F3160012
:1006500042EA0151C2084007114370470020014699
:100660007047000030B5041E71F1000404DB4FF048
:100670000044404264EB0101141E73F1000405DBE9
:100680001C464FF00043524263EB04038B4208BF09
:10069000824230BD30B5041E71F1000404DB4FF01E
:1006A0000044404264EB0101141E73F1000405DBB9
:1006B0001C464FF00043524263EB0403994208BFCB
:1006C000904230BD30B50B46014600202022012467
:1006D00009E021FA02F59D4205D303FA02F5491B10
:1006E00004FA02F52844151EA2F10102F1DC30BD26
:1006F0002DE9F05F0546002092469B468846064657
:10070000814640241BE0284641464746224600F0E9
:10071000C7F953465A46C01A914110D3114618469C
:10072000224600F016F82D1A67EB01084F462246C4
:100730000120002100F00DF817EB00094E41201EAA
:10074000A4F10104DFDC484631462A464346BDE8B1
:10075000F09F202A04DB203A00FA02F100207047C3
:100760009140C2F1200320FA03F3194390407047EF
:10077000202A06DBCB17203A41FA02F043EAE07365
:1007800006E041FA02F3D040C2F120029140084352
:1007900019467047014900F003B80000FC0600202C
:1007A00010B500683C22B0FBF2F302FB1303B0FB70
:1007B000F2F00B60B0FBF2F302FB1303B0FBF2F0BC
:1007C00018224B60B0FBF2F302FB1303B0FBF2F014
:1007D000021D8B600723B2FBF3F403FB142280009D
:1007E00040F2B55300F66C308A61B0FBF3F2B0FB17
:1007F000F3F403FB1400443280084A61C8613B28CB
:1008000002D3920700D0401C0022074C13460A6115
:10081000E25C824203D8801A5B1C0B61F8E7401C43
:10082000C860084610BD000050FD00082DE9F047E3
:1008300091460F4680460446002614F8015B2DB110
:1008400000F03EF90068405DC007F6D12B2D02D0C4
:100850002D2D18D0641E4A463946204600F034F942
:1008600027B13968A14201D1C7F8008071054FF066
:1008700002040BD54042002803DD03F03FF9046079
:10088000A007BDE8F08746F48066E4E70028F8DAC0
:1008900003F034F904606FF00040F2E70029A8BFCC
:1008A0007047401C490008BF20F00100704710B499
:1008B000B0FA80FC00FA0CF050EA010404BF10BC4E
:1008C000704749B1CCF1200421FA04F411FA0CF17B
:1008D00018BF012121430843A3EB0C01CB1D4FEAB4
:1008E00000614FEA102042BF002010BC704700EBAF
:1008F000C35010440029A4BF10BC7047401C4900DD
:1009000008BF20F0010010BC704710B5141E73F131
:10091000000408DA401C41F1000192185B411A43BF
:1009200001D120F0010010BD2DE9F04D92469B460B
:1009300011B1B1FA81F202E0B0FA80F220329046B1
:10094000FFF707FF04460F4640EA0A0041EA0B01A1
:1009500053465A46084313D0114653EA010019D0B2
:10096000C8F14002504600F09BF805460E4650463E
:1009700059464246FFF7EDFE084305D0012004E04A
:1009800020463946BDE8F08D0020054346EAE07672
:100990002C4337430A986305E40AA0EB08000022C1
:1009A000FD0A44EA47540A3002D500200146E9E72F
:1009B000010510196941DDE9084500196941BDE8E3
:1009C000F04DA2E72DE9FE4FC3F30A5701F00045B1
:1009D0000024C1F30A56C3F31303C1F3130143F414
:1009E000801312EB020AA64641F48011009543EBF6
:1009F000030CA7F1010B16E0B0EB0A0061EB0C0150
:100A0000071E71F1000707DA4FF00008D0EB08006D
:100A100085F0004568EB0101171A73EB0107EBD372
:100A2000761E001849415E45F6DA50EA010209D007
:100A3000CDE900E5002213460296FFF775FF03B0EB
:100A4000BDE8F08F20460099F9E7C1F30A52C1F3DF
:100A5000130140F2FF3341F480119A4202DA002080
:100A60000146704740F233439A42A2F2334202DC1D
:100A7000524200F015B8FFF76CBE0000064C074D5F
:100A800006E0E06840F0010394E80700984710345E
:100A9000AC42F6D3FFF72EFBE4FD000804FE00088D
:100AA000202A04DB203A21FA02F00021704721FAC3
:100AB00002F3D040C2F1200291400843194670472A
:100AC00000487047E0FD00082DE9F05F824600789D
:100AD000002715468B460AF10104B946302801D09B
:100AE0009DB113E014F8010B0127782803D0582892
:100AF00001D045B10AE00DB1102D07D10027102516
:100B000014F8010B02E0082500E00A250026B04693
:100B10000EE005FB080005FB06F1012701EB10467E
:100B20001FFA80F8B6F5803F00D3B94614F8010BE0
:100B3000294600F018F80028EBDABBF1000F05D0C9
:100B40000FB1641E00E05446CBF80040B9F1000F2D
:100B500006D002F0D3FF02210160C81EBDE8F09F5D
:100B600048EA0640FAE73A2800D2303820F020025E
:100B7000412A01D3A2F13700884201D34FF0FF3060
:100B80007047000010B53448C088344991F900100E
:100B9000884211D130480089304991F901108842CA
:100BA0000AD12D4840892D4991F90210884203D17C
:100BB00001202B49C87030E02748C088294991F9A5
:100BC0000010884211D124480089264991F901106A
:100BD00088420AD120484089224991F9021088426E
:100BE00003D101201E49C87017E01B48C0881E4968
:100BF00091F90010884210D1174800891A4991F9DB
:100C00000110884209D114484089174991F902100E
:100C1000884202D101201249C8701148C07830B111
:100C2000022000F0BFF8022001F06EFA07E04FF456
:100C300080700E49086041010D4800F071FB0D48BD
:100C4000007840B100200B4908700548C07810B109
:100C500000200349C87010BD4E0000200D00002088
:100C600004000020100000201300002014080140A0
:100C7000001001406C00002010B503F0BFFE64209E
:100C800003F046FC00F008F800F00BF800F00EF856
:100C9000112000F02AF810BD10B5002000F025F852
:100CA00010BD10B5012000F020F810BD10B50720D0
:100CB00000F01BF810BD70B503F04CFF472003F0A7
:100CC00015FF00BF03F092FF0028FBD0012003F0C6
:100CD000D7FE0646002003F0D3FE044603F060FF73
:100CE00004EB062085B2284670BD10B5044603F01B
:100CF00031FF462003F0FAFE00BF03F077FF002823
:100D0000FBD0204603F0F2FE00BF03F06FFF002887
:100D1000FBD003F045FF10BD08B501460020009050
:100D2000034800900098084400900098008808BD8F
:100D3000006C004008B500220092044A0092009A1C
:100D400002440092009A116008BD0000006C00404F
:100D500008B510208DF8030003208DF80200012152
:100D6000042001F069FC4FF48070ADF80000694682
:100D70000B4800F041FA4FF48071094800F0D2FAB4
:100D80004FF4807006491031086041F2883003F05A
:100D9000BFFB4FF4807002491431086008BD0000A9
:100DA000000801401B490968002926DD1949096826
:100DB000491E184A116018490968002917DD164AAA
:100DC000116801EBD1725210A1EB420222B94FF42B
:100DD0008071124A116004E04FF480710F4A121DB5
:100DE00011600D490968491E0B4A116010E04FF46B
:100DF00080710A4A121D11600AE00A21054A116039
:100E00004100054A11604FF48071044A121D1160BF
:100E100070470000600000206400002010080140BE
:100E200010B57648008800286FD0754975A004F089
:100E300065F976A17248FFF7F6F930B902207649D4
:100E40000870012075498870D4E075A16C48FFF7DF
:100E5000EAF930B900207049087001206F498870A4
:100E6000C8E072A16648FFF7C5F920B30623022245
:100E70006349704803F048FF0446FFF7E2F940B2C7
:100E80006D490870082302225D496A4803F03CFF5F
:100E90000446FFF7D6F940B2674948700A23022298
:100EA0005749644803F030FF0446FFF7CAF940B2DF
:100EB000614988709EE061A15148FFF79BF928B312
:100EC000062302224E495B4803F01EFF0446FFF74B
:100ED000B8F940B25B4908700823022248495548D6
:100EE00003F012FF0446FFF7ACF940B255494870D1
:100EF0000A23022242494F4803F006FF0446FFF747
:100F0000A0F940B24F49887074E076E04EA13C48A9
:100F1000FFF770F920B3062302223949454803F050
:100F2000F3FE0446FFF78DF940B2494908700823E3
:100F3000022233493F4803F0E7FE0446FFF781F9F8
:100F400040B2434948700A2302222D49394803F030
:100F5000DBFE0446FFF775F940B23D49887049E071
:100F60003CA12748FFF746F9002843D00523022279
:100F70002349304803F0C8FE0446FFF762F93749B9
:100F8000C880072302221E492A4803F0BDFE0446FA
:100F9000FFF757F9314908810923022218492548EA
:100FA00003F0B2FE0446FFF74CF92C4948810B23AD
:100FB000042213491F4803F0A7FE0446FFF741F936
:100FC000264908800F2302220D491A4803F09CFE8F
:100FD0000446FFF736F921494880112302220849C7
:100FE000144803F091FE0446FFF72BF91B49888053
:100FF00001F0A4F900200149088010BD260000205E
:10100000C001002025730D0A000000004D6F6465CB
:10101000314F70656E0000000B00002004000020BE
:101020004D6F646531436C6F73650000416C617294
:101030006D310000280000200D000020416C61721D
:101040006D32000010000020416C61726D330000B1
:10105000130000204E74696D650000004E000020F2
:1010600000BFFEE708B50121042001F0E5FA1020D9
:10107000ADF800008DF8030003208DF802006946EA
:10108000014800F0B9F808BD0008014010B5FFF7AD
:10109000E9FF1021014800F045F910BD00080140AA
:1010A00008B51020ADF8000048208DF8030069460F
:1010B000014800F0A1F808BD0008014008B5102063
:1010C000ADF800008DF8030003208DF8020069469A
:1010D000014800F091F808BD0008014070B50025F6
:1010E000002424E000BF1021134800F010F900286C
:1010F000F9D0282003F032FA10210F4800F007F948
:1011000001280DD100BF10210B4800F000F9012883
:10111000F9D0C4F1070101208840C0B2054304E0C2
:10112000C4F10701012088408543601CC4B2082C2B
:10113000D8DB284670BD00000008014010B5044609
:10114000FFF7BCFF1021244800F0EAF8122003F05A
:10115000DFF91021204800F0E5F81E2003F0FEF929
:10116000FFF79EFF10211C4800F0D1F880BB00BFA4
:101170001021194800F0CBF80028F9D000BF102149
:10118000154800F0C4F80128F9D0FFF7A7FF207038
:10119000FFF7A4FF6070FFF7A1FFA070FFF79EFFAD
:1011A000E070FFF79BFF2071FFF788FF10210A48CE
:1011B00000F0B8F8207861780844A1780844E17814
:1011C00008442179884201D1012010BD0020FCE7AC
:1011D000FFE70020F9E700000008014070470146E2
:1011E00005E0002001E0421CD0B27B28FBDB0A1E98
:1011F000A1F10101F5D170472DE9F041024600252A
:101200000026002000230024002791F803C00CF0E2
:101210000F0591F803C00CF0100CBCF1000F03D0C7
:1012200091F802C04CEA050591F800C0BCF1000F2E
:1012300031D0146800202BE04FF0010C0CFA00F3C1
:10124000B1F800C00CEA03069E4220D183004FF0A3
:101250000F0C0CFA03F7BC4305FA03FC4CEA040438
:1012600091F803C0BCF1280F06D14FF0010C0CFA25
:1012700000FCC2F814C00AE091F803C0BCF1480FAA
:1012800005D14FF0010C0CFA00FCC2F810C0401C54
:101290000828D1D31460B1F800C0BCF1FF0F34DDD1
:1012A000546800202EE000F1080C4FF0010808FA05
:1012B0000CF3B1F800C00CEA03069E4221D1830072
:1012C0004FF00F0C0CFA03F7BC4305FA03FC4CEA91
:1012D000040491F803C0BCF1280F05D100F1080CFB
:1012E00008FA0CF8C2F8148091F803C0BCF1480F5A
:1012F00007D100F1080C4FF0010808FA0CF8C2F809
:101300001080401C0828CED35460BDE8F08102460E
:10131000002093680B400BB1012000E000207047D3
:1013200041617047016170472DE9FF4F83B00C4662
:101330001F466421039890FBF1F0C0B2019003981E
:1013400090FBF1F201FB1200C5B20198132806D000
:101350000198142803D0002007B0BDE8F08F019851
:10136000142806D105F1630000EB40001FFA80F954
:1013700004E0681E00EB40001FFA80F9694909F19A
:101380000200085C00F0600A4FEA6A1A09F10200E4
:10139000085C00F01F0BBAF1010F04D1ABF10100A2
:1013A00000F0FF0803E00BF11E0000F0FF080A2C1C
:1013B00007DA601E5C49095C05980844401E86B245
:1013C00008E0A4F10A00594931F8101005980844C2
:1013D000401E86B2022C08DDE91705EB91718910D9
:1013E000A5EB810109B9701C86B246453EDBA6EB30
:1013F000080086B201240120029000200090494696
:10140000029800F095F810B94FF01D0A01E04FF076
:101410001E0A444911F80900C11700EB11714FEA87
:10142000211B1DE0A6EB0A0086B20298401CC0B248
:1014300002905C4508D10098C043C0B2009000986B
:1014400020B9601CC4B201E0601CC4B249460298D5
:1014500000F06EF810B94FF01D0A01E04FF01E0ABF
:101460005645DFDA701CC0B205904FE0A8EB0600CD
:1014700000F0FF081DB963251320019001E0681EEC
:10148000C5B2A9F103001FFA80F90C24254911F80F
:101490000900C11700EB11714FEA211BBBF1000FCE
:1014A00002D10C20029001E00D200290002000905B
:1014B0004946029800F03CF810B94FF01D0A01E0CF
:1014C0004FF01E0A1BE0A8EB0A0000F0FF0802988C
:1014D000401EC0B20290009808B9601EC4B25C45BC
:1014E00003D10098C043C0B200904946029800F072
:1014F0001FF810B94FF01D0A01E04FF01E0AD04549
:10150000E1DCAAEB0800401CC0B20590019807F886
:10151000010B07F8015B07F8014B059838700120B3
:101520001AE70000E4C10008EAC40008F4C4000897
:1015300002460E2A70D2DFE802F086071019222B2D
:10154000353F49535D67727C4048405C00F00800BD
:1015500008B9002070470120FCE73C48405C00F0DF
:10156000040008B90020F5E70120F3E73748405CA4
:1015700000F0020008B90020ECE70120EAE7334858
:10158000405C00F0010008B90020E3E70120E1E73A
:101590002E4B481C185C00F0800008B90020D9E7E9
:1015A0000120D7E7294B481C185C00F0400008B91F
:1015B0000020CFE70120CDE7244B481C185C00F049
:1015C000200008B90020C5E70120C3E71F4B481CD5
:1015D000185C00F0100008B90020BBE70120B9E753
:1015E0001A4B481C185C00F0080008B90020B1E74D
:1015F0000120AFE7154B481C185C00F0040008B947
:101600000020A7E70120A5E7104B481C185C00F05C
:10161000020010B900209DE715E001209AE70B4B6E
:10162000481C185C00F0010008B9002092E7012076
:1016300090E7064B881C185C00F0800008B9002079
:1016400088E7012086E7002084E70000E4C1000865
:1016500010B50A46B0F5F86F09DBA0F5F86398B24B
:101660003C2390FBF3F403FB1403D9B20AE0C0F56A
:10167000F86398B23C2390FBF3F403FB1403C3F12B
:101680003C03D9B2117010BD00BFFEE710B54FF496
:1016900080510948FFF746FE4FF400610648FFF706
:1016A00041FE4FF400610448FFF73AFE4FF48051C9
:1016B0000148FFF735FE10BD0008014010B54FF49A
:1016C00080510748FFF72EFE4FF400610448FFF7F2
:1016D00027FE4FF400610248FFF724FE10BD000012
:1016E0000008014010B54FF480510448FFF71AFE7E
:1016F0004FF480510148FFF713FE10BD0008014070
:101700002DE9F84300F0F6FDFD480588867890F84D
:1017100004802A464146304602F090FF04461222D9
:101720000021282003F0D0FB13220021382003F0F1
:10173000CBFB14220021482003F0C6FBF1480078BF
:10174000012804D002287DD003287CD130E110206C
:101750000090EB48028804230221082003F0E8FBF4
:1017600008220221282003F0AFFB10200090E4485B
:10177000428802231946382003F0DAFB09220221AD
:10178000482003F0A1FB10200090DD48828802234E
:101790001946582003F0CCFB0A220221682003F0EE
:1017A00093FB10200090D648C288042319460020DD
:1017B00003F0BEFB0B220421202003F085FB102048
:1017C0000090CF48028902230421302003F0B0FBAF
:1017D0000C220421402003F077FB10200090C84821
:1017E000428902230421502003F0A2FB0D22042190
:1017F000602003F069FB19220621282003F064FB16
:1018000018220621382003F05FFB012E03D1681E49
:1018100085B20D2604E0022E02D1681E85B20E2686
:10182000711C01EB4101052291FBF2F1022202FB46
:101830000682114429442846EA1705EB927201EB0F
:10184000A20101E044E035E2642295FBF2F2891A3C
:101850004FF4C87295FBF2F21144072291FBF2F3A8
:1018600002FB1311491CCFB2082F2FD2DFE807F07B
:101870002E040A10161C222850220621482003F0AC
:1018800023FB23E051220621482003F01DFB1DE02D
:1018900052220621482003F017FB17E053220621AD
:1018A000482003F011FB11E054220621482003F0E8
:1018B0000BFB0BE055220621482003F005FB05E059
:1018C00056220621482003F0FFFA00BF00BFAFE216
:1018D00012220021282003F0F7FA132200213820D9
:1018E00003F0F2FA14220021482003F0EDFA00225E
:1018F0000221104603F0E8FA02221146102003F0FC
:10190000E3FA10233A220221202000F035FE0122C2
:101910000421002003F0D8FA02220421102003F051
:10192000D3FA10233A220421202000F025FE0422BD
:101930000621002003F0C8FA05220621102003F03A
:10194000C3FA10233A220621202000F015FE1020B1
:1019500000906D48827802231946302003F0E8FA9F
:10196000102000906848027802230421302003F000
:10197000DFFA66490868FEF74DFE81461020042311
:101980004A4606210090302003F0D2FA03220221B9
:10199000402003F099FA10235DA20421402003F0B7
:1019A0000BFB10235BA20621582003F005FB3FE24E
:1019B000102000905248028804230221082003F0DE
:1019C000B7FA08220221282003F07EFA10200090A6
:1019D0004B48428802231946382003F0A9FA09220D
:1019E0000221482003F070FA1020009044488288B9
:1019F00002231946582003F09BFA0A22022168208C
:101A000003F062FA42463146284603F0FDFA3822D6
:101A10000621042003F058FA39220621142003F08D
:101A200053FA10233A220621232000F0A5FD012CB1
:101A30000AD11A2206212D2003F046FA1B22062184
:101A40003C2003F041FA34E1022C0AD11C22062189
:101A50002D2003F039FA1D2206213C2003F034FA30
:101A600027E1032C0AD11E2206212D2003F02CFA97
:101A70001F2206213C2003F027FA1AE1042C0AD188
:101A80001B2206212D2003F01FFA202206213C20D4
:101A900003F01AFA0DE1052C0AD1212206212D208E
:101AA00003F012FA222206213C2003F00DFA00E195
:101AB000062C0AD1232206212D2003F005FA242228
:101AC00006213C2003F000FAF3E0072C0AD11A2289
:101AD00006212D2003F0F8F9252206213C2003F0F1
:101AE000F3F9E6E0082C17D1262206212D2003F079
:101AF000EBF9272206213C2003F0E6F9D9E00000AB
:101B00004E0000200C0000208A0000200000002071
:101B1000255248004C757800092C0AD1282206214C
:101B20002D2003F0D1F9292206213C2003F0CCF925
:101B3000BFE00A2C0AD1252206212D2003F0C4F98A
:101B40002A2206213C2003F0BFF9B2E00B2C0AD177
:101B5000262206212D2003F0B7F92B2206213C2056
:101B600003F0B2F9A5E00C2C0AD12C2206212D207D
:101B700003F0AAF92B2206213C2003F0A5F998E0F6
:101B80000D2C0AD11A2206212D2003F09DF92D22B9
:101B900006213C2003F098F98BE00E2C0AD12E226E
:101BA00006212D2003F090F92B2206213C2003F082
:101BB0008BF97EE00F2C0AD12F2206212D2003F075
:101BC00083F9302206213C2003F07EF971E0102CCD
:101BD0000AD12D220621104603F076F93222062181
:101BE0003C2003F071F964E0112C0AD13322062164
:101BF0002D2003F069F9302206213C2003F064F91E
:101C000057E0122C0AD1342206212D2003F05CF972
:101C1000352206213C2003F057F94AE0132C0AD163
:101C20001A2206212D2003F04FF9362206213C20EE
:101C300003F04AF93DE0142C0AD11C2206212D2084
:101C400003F042F91D2206213C2003F03DF930E06B
:101C5000152C0AD1262206212D2003F035F9372232
:101C600006213C2003F030F923E0162C0AD12C2267
:101C700006212D2003F028F9372206213C2003F00D
:101C800023F916E0172C0AD1262206212D2003F075
:101C90001BF9332206213C2003F016F909E02C221F
:101CA00006212D2003F010F9332206213C2003F0F9
:101CB0000BF9BDE0102000905F4802880423022148
:101CC000082003F035F908220221282003F0FCF84F
:101CD000102000905848428802231946382003F00B
:101CE00027F909220221482003F0EEF81020009085
:101CF0005148828802231946582003F019F90A2214
:101D00000221682003F0E0F8102000904A48C288C1
:101D100004231946002003F00BF90B220421202094
:101D200003F0D2F8102000904348028902230421D6
:101D3000302003F0FDF80C220421402003F0C4F809
:101D4000102000903C48428902230421502003F0D7
:101D5000EFF80D220421602003F0B6F819220621C5
:101D6000282003F0B1F818220621382003F0ACF83F
:101D7000012E03D1681E85B20D2604E0022E02D189
:101D8000681E85B20E26711C01EB4101052291FBF4
:101D9000F2F1022202FB0682114429442846EA1786
:101DA00005EB927201EBA201642295FBF2F2891A13
:101DB0004FF4C87295FBF2F21144072291FBF2F343
:101DC00002FB1311491CCFB2082F2FD2DFE807F016
:101DD0002E040A10161C222850220621482003F047
:101DE00073F823E051220621482003F06DF81DE02E
:101DF00052220621482003F067F817E053220621FB
:101E0000482003F061F811E054220621482003F035
:101E10005BF80BE055220621482003F055F805E059
:101E200056220621482003F04FF800BF00BF00BF34
:101E300000BFBDE8F88300004E0000200146CA172D
:101E400001EB92729210A1EB820292B9642091FB95
:101E5000F0F200FB121050B94FF4C87091FBF0F291
:101E600000FB121008B9012070470020FCE7012098
:101E7000FAE70020F8E7000008B50121082000F08B
:101E8000DBFB4FF20200ADF8000004208DF80300E8
:101E900069460A48FFF7B0F969460848FFF7ACF908
:101EA00069460648FFF7A8F969460448FFF7A4F910
:101EB00069460248FFF7A0F908BD0000000C014088
:101EC0000348007810B901200149087070470000EC
:101ED000680000200348007810B90120014908700B
:101EE00070470000690000200348007810B9012005
:101EF00001490870704700006A000020034800781C
:101F000010B9012001490870704700006B000020E3
:101F10000348007810B9012001490870704700009B
:101F20006C00002010B54FF480516948FFF7EFF9BD
:101F3000E0B968480068C8B967480068401C66494D
:101F400008600846006802280FDD4FF480516048A1
:101F5000FFF7DDF9002808D15E4800680028FAD1B3
:101F6000FFF7AEFF01205B490860AFE04FF400517E
:101F70005748FFF7CCF9E0B956480068C8B9564849
:101F80000068401C54490860084600680228ECDDDF
:101F90004FF400514E48FFF7BAF90028E5D14D48FB
:101FA00000680028E1D1FFF795FF0120494908604A
:101FB0008CE04FF480414648FFF7A9F9E0B9454865
:101FC0000068C8B944480068401C43490860084696
:101FD000006802287ADD4FF480413D48FFF797F909
:101FE000002873D13B48006800286FD1FFF77CFFC1
:101FF00001203849086069E04FF400413448FFF798
:1020000086F9E0B933480068C8B933480068401C15
:102010003149086008460068022857DD4FF4004146
:102020002B48FFF774F9002850D12A48006800288F
:102030004CD1FFF763FF01202649086046E00221EA
:102040002348FFF764F9C8B922480068B0B92248AC
:102050000068401C2049086008460068022835DDF9
:1020600002211B48FFF753F980BB1A48006868BB80
:10207000FFF74EFF01201749086027E04FF4805119
:102080001348FFF744F9012820D141031048FFF716
:102090003EF901281AD181030D48FFF738F90128CC
:1020A00014D1C1030A48FFF732F901280ED10221E9
:1020B0000748FFF72CF9012808D1064800680128D5
:1020C00004D10020044908600249086010BD0000E6
:1020D000000C0140740000207000002008B50121B0
:1020E000102000F0A9FA4FF40050ADF800001020C5
:1020F0008DF8030003208DF8020069460148FFF7C0
:102100007BF808BD0010014010B504461B4800686C
:10211000002827DD19480068401E18490860184843
:102120000068002818DD1649086800EBD0714910D6
:10213000A0EB410129B94FF400511248FFF7F2F822
:1021400004E04FF400510F48FFF7EAF80C4800682C
:10215000401E0B49086010E04FF400510948FFF79A
:10216000DFF80AE00A2005490860600004490860B9
:102170004FF400510348FFF7D3F810BD7C00002056
:10218000800000200010014070B5FEF794FD054668
:10219000FEF72AFA04460249FEF760F870BD000017
:1021A0009A99993F00BFFEE710B52D48007890B18D
:1021B00000202C4908702C4908702C4908702C49C3
:1021C00008702749087002F0C6FD2A480078401CB4
:1021D000284908701DE026480078D0B125480078CD
:1021E000B8B900201F4908701F4908701F490870BE
:1021F0001F4908701A49087002F0ADFD1E480078AA
:10220000401C1D49087008460078032801DD0020A5
:102210000870FEF705FE17480078032802DB00204F
:10222000144908701548807820B102F094FD002010
:10223000124988700F48007820B1012807D0022881
:102240000BD107E0FFF75CFAFEF79CFC05E001F01C
:102250004DF802E000F0B0FD00BF00BF10BD00006F
:10226000680000206C0000206B0000206A00002045
:10227000690000200B0000200C000020040000205A
:1022800010B50121080700F0C7F90121C80600F0C8
:10229000C3F9012000F0B8F90420FEF73DFD4AF231
:1022A000A551884220D0012000F05EFA00BF4120F5
:1022B00000F03CFA0128FAD1000200F075FA012082
:1022C00000F06CFA00F0A2FB00F096FB47F6FF70FE
:1022D00000F082FB00F090FB00F030F84AF2A551CC
:1022E0000420FEF727FD03E000F090FB00F084FBE4
:1022F00010BD000010B58CB000F0FAFA00F5E14016
:102300000B900BA8FEF746FA04462C22214668469D
:10231000FDF75EFF059800F26C700749088004988D
:10232000401C4880039888800298C88001980881E2
:10233000009848810CB010BD4E00002010B58CB044
:1023400010480088A0F26C7006900E484088401E2D
:1023500005900C48808804900A48C088039009487A
:102360000089029007484089019001A8FDF7DCFE32
:10237000A0F5E144204600F021FB00F03DFB0CB04D
:1023800010BD00004E00002000B585B001210420E2
:1023900000F052F90121880300F04EF918208DF861
:1023A00013004FF40070ADF8100001208DF81200FA
:1023B00004A91648FEF720FF04208DF81300000240
:1023C000ADF8100004A91148FEF716FF4FF416509F
:1023D00000900020ADF80C000C20ADF80A000020A1
:1023E000ADF80800ADF80600ADF8040069460848ED
:1023F00001F014FA012240F22551054801F0E8F9F4
:102400000121034801F0A1F905B000BD0008014019
:1024100000380140704708B54FF4A06000F08EF816
:1024200025208DF8000002208DF801008DF80200B3
:1024300001208DF80300684600F048F826208DF84A
:10244000000000208DF801008DF8020001208DF8B9
:102450000300684600F03AF826208DF800000220BC
:102460008DF801008DF8020001208DF80300684608
:1024700000F02CF81E208DF8000002208DF80100DD
:102480008DF8020001208DF80300684600F01EF868
:102490001D208DF8000002208DF801008DF802004B
:1024A00001208DF80300684600F010F81C208DF81C
:1024B000000002208DF801008DF8020001208DF847
:1024C0000300684600F002F808BD000070B5002166
:1024D00000230F22C47804B3154C246804F4E0648C
:1024E000C4F5E064210AC1F10403CA40447804FA47
:1024F00003F184781440214309010E4C0678A1555C
:10250000047804F01F050124AC4005786D11AD007E
:1025100005F1E025C5F8004109E0047804F01F0545
:102520000124AC40044D0678761145F8264070BD74
:102530000CED00E000E400E080E100E0024901432E
:10254000024A1160704700000000FA050CED00E03F
:1025500070B504460D4605F1B000002100F048F8C2
:10256000102141EA1410002100F042F804F00F009D
:10257000002100F03DF870BD2DE9F04707460E46FA
:102580009046994600250024A8F12000C5B27F2F6F
:1025900002DD0027B01CC6B2B9F1100F23D13146BD
:1025A0003846FFF7D5FF002408E004EB05110F4A79
:1025B000505C012100F01CF8601CC4B2082CF4DB54
:1025C000701CC1B23846FFF7C3FF002409E004EBDA
:1025D00005110831054A505C012100F009F8601C22
:1025E000C4B2082CF3DBBDE8F0870000F48B0008D0
:1025F00070B504460D461DB1E0B201F043FA02E0A9
:10260000E0B201F029FA70BD01490862704700008C
:1026100000000E427047000029B1064AD269024309
:10262000044BDA6104E0034AD2698243014BDA6168
:10263000704700000010024029B1064A9269024327
:10264000044B9A6104E0034A92698243014B9A6108
:10265000704700000010024030B500210022002425
:1026600000232D4D6D6805F00C0121B1042905D022
:10267000082923D105E0294D056022E0274D05609A
:102680001FE0254D6D6805F47012234D6D6805F44B
:102690008034022505EB92421CB9214D554305605B
:1026A0000BE01D4D6D6805F400351DB11C4D554303
:1026B000056002E0194D5543056002E0174D0560C5
:1026C00000BF00BF144D6D6805F0F0010909154DFC
:1026D0006B5C0568DD4045600F4D6D6805F4E06199
:1026E000090A104D6B5C4568DD4085600A4D6D68D8
:1026F00005F46051C90A0B4D6B5C4568DD40C5604F
:10270000054D6D6805F44041890B074D6B5CC5684C
:10271000B5FBF3F5056130BD0010024000127A00F0
:1027200000093D00A4000020B400002010B50146BF
:102730000022002300204A11012A02D1094C2368FB
:1027400006E0022A02D1074C236A01E0054C636AC5
:1027500001F01F02012494401C400CB1012000E054
:10276000002010BD0010024000210B4A11700A4ADF
:10277000203A82F82010012802D0042808D103E072
:102780000121054A117004E00521034A117000E09F
:1027900000BF00BF704700002010024001490860E0
:1027A000704700003C0442420249096A0143014A61
:1027B0001162704700100240024909888143014AB2
:1027C00011807047042800400348008840F0100042
:1027D0000149088070470000042800400348008831
:1027E0004FF6EF7108400149088070470428004007
:1027F00070B500260024002500F07AF80646384817
:10280000B6FBF0F437480088A0423CD035490C8034
:1028100040F2B27510E02846FFF710FB40B1B4F566
:10282000B77F02D3A4F5B77404E0681C85B206E054
:10283000A4F26D14681C85B2B4F5B67FEBD800BF66
:1028400029488580002516E027498888FFF7F6FA91
:1028500030B1012D04D11D2C01D31D3C09E00CE049
:102860002248405DA04203D82048405D241A00E081
:1028700003E0681C85B21C2CE6D200BF681C1A4914
:102880008871601CC8711648B6FBF0F100FB11643A
:102890004FF46160B4FBF0F0134908704FF46160CD
:1028A000B4FBF0F100FB11403C21B0FBF1F00E490C
:1028B00048704FF46160B4FBF0F100FB11403C2123
:1028C000B0FBF1F201FB1200074988700B46DA7980
:1028D0009979988800F028F803490872002070BDA3
:1028E000805101005A000020F0060020C089000835
:1028F000002103480188001F008841EA004070471A
:102900001C28004001460020064A12880A40D0B226
:10291000044A121F12880A4012B108B1012000E0D7
:102920000020704704280040F0B503460C461546C9
:10293000642093FBF0F0C6B2642093FBF0F700FB39
:102940001730C1B2132E02DD01F16400C1B2084696
:10295000CF1701EB977701EBA707BAB2072092FBDD
:10296000F0F700FB172082B25719601EDFF82CC069
:102970001CF80000384482B2CF1701EB9777BF10E4
:10298000A1EB87071FB9032C01DA501E82B2072082
:1029900092FBF0F700FB1720C0B2F0BDB48900082D
:1029A00010B50120FFF7AEFF08B1FFF721FF0520AA
:1029B000FFF702FF00F020F810BD000000B502464E
:1029C000FFF702FF100C03490880091D0A80FFF77A
:1029D00005FF00BD1828004000B50246FFF7F4FED1
:1029E000C2F3034003490880091D0A80FFF7F6FE81
:1029F00000BD00000828004000BF0348008800F028
:102A000020000028F9D070470428004007480088BB
:102A10004FF6F77108400549088000BF0348008859
:102A200000F008000028F9D070470000042800409A
:102A3000704710B500F002F810BD00000CB5002082
:102A4000019000903348006840F4803031490860BC
:102A500000BF3048006800F4003000900198401C2E
:102A60000190009818B90198B0F5A06FF1D12948EC
:102A7000006800F4003010B10120009001E0002057
:102A800000900098012843D12348006840F01000CE
:102A9000214908600846006820F0030008600846E5
:102AA000006840F0020008601A4840681949486010
:102AB0000846406848600846406840F480604860C6
:102AC0000846406820F47C1048600846406840F49E
:102AD000E81048600846006840F08070086000BF59
:102AE0000C48006800F000700028F9D009484068E0
:102AF00020F00300074948600846406840F00200A3
:102B0000486000BF0348406800F00C000828F9D175
:102B10000CBD00000010024000200240042808D133
:102B20004FF0E021096941F004014FF0E02211610A
:102B300007E04FF0E021096921F004014FF0E022A5
:102B4000116170477047000010B51348006840F0ED
:102B500001001149086008464068104908400E49C4
:102B60004860084600680E4908400B49086008465E
:102B7000006820F4802008600846406820F4FE00C9
:102B800048604FF41F008860FFF753FF4FF000606C
:102B90000449086010BD0000001002400000FFF86A
:102BA000FFFFF6FE08ED00E07FB505460C4601216B
:102BB000C802FFF741FDADF80850ADF80440002011
:102BC000ADF80A00ADF8060001A9114800F0A2F81E
:102BD00001A90F4800F09EF801210D4800F06DF8A2
:102BE000012241210A4800F08BF819208DF80000DD
:102BF00002208DF801008DF8020001208DF80300FD
:102C00006846FFF763FC0121014800F05CF87FBDD6
:102C1000002C014010B501211C4800F060F800288C
:102C200033D0FFF77FF91A480088401C1849088004
:102C300008460088B0F5967F04DB0020088001205C
:102C4000144908701348C078D8B113480088401C54
:102C50001149088008460088642807DB0F4800886F
:102C6000401C0E49088000200B4908800B48008852
:102C70000F2806DB00200749C8700749088007496C
:102C800008800121014800F01BF810BD002C014014
:102C90001E00002004000020200000202200002050
:102CA00010B50121880700F01AF828B1FFF73AF9AA
:102CB0000121880700F004F810BDCA430282704762
:102CC000CA430282704721B1028842F001020280A9
:102CD00004E002884FF6FE731A400280704730B558
:102CE0000246002000230024158A05EA0103958985
:102CF00005EA010413B10CB1012000E0002030BD51
:102D00001AB183890B43838102E083898B438381DA
:102D100070470000002202881D4B98420ED01D4BC8
:102D200098420BD0B0F1804F08D01B4B984205D091
:102D30001A4B984202D01A4B984204D14FF68F7327
:102D40001A404B881A43174B984207D0164B9842AB
:102D500004D04FF6FF431A40CB881A4302808B8879
:102D600083850B8803850A4B98420BD0094B984208
:102D700008D00E4B984205D00D4B984202D00D4B17
:102D8000984201D10B7A03860123838270470000A9
:102D9000002C0140003401400004004000080040C5
:102DA000000C0040001000400014004000400140B2
:102DB000004401400048014000B591B006220021C6
:102DC000202002F081F807220021302002F07CF858
:102DD0000E220021402002F077F80F22002150201F
:102DE00002F072F806220221082002F06DF8072294
:102DF0000221182002F068F8102331220221282035
:102E0000FFF7BAFB10233A2202213020FFF7B4FB70
:102E100006220421082002F057F807220421182076
:102E200002F052F81023322204212820FFF7A4FBDD
:102E300010233A2204213020FFF79EFB0622114680
:102E4000082002F041F807220621182002F03CF881
:102E50001023332206212820FFF78EFB10233A226D
:102E600006213020FFF788FBEB48007898B1EB484B
:102E70000078401CE949087008460078042801D110
:102E800001200870E5480078E54908700020E54910
:102E90000870E1490870E448007868B1E1480078BA
:102EA000401CE049087008460078042801D1002041
:102EB00008700020DC490870DC48007800286ED0DB
:102EC0000020DA490870D548007801281FD1D5487C
:102ED0000078012804D0022809D0032815D10DE07C
:102EE000D3480078401C40B2D14908700EE0D04869
:102EF0004078401C40B2CE49487007E0CC4880780A
:102F0000401C40B2CA49887000E000BF47E0C34897
:102F1000007802281FD1C3480078012804D0022875
:102F200009D0032815D10DE0C2480078401C40B2FA
:102F3000C04908700EE0BF484078401C40B2BD490F
:102F4000487007E0BB488078401C40B2B94988709F
:102F500000E000BF23E0B148007803281FD1B1484A
:102F60000078012804D0022809D0032815D10DE0EB
:102F7000B1480078401C40B2AF4908700EE0AE483E
:102F80004078401C40B2AC49487007E0AA488078BD
:102F9000401C40B2A849887000E000BF00BFA748AD
:102FA000007800286ED00020A44908709B48007863
:102FB00001281FD19B480078012804D0022809D09D
:102FC000032815D10DE09A480078401E40B2984978
:102FD00008700EE096484078401E40B29449487010
:102FE00007E093488078401E40B29149887000E025
:102FF00000BF47E08948007802281FD1894800783F
:10300000012804D0022809D0032815D10DE08948F1
:103010000078401E40B2874908700EE0854840782D
:10302000401E40B28349487007E082488078401EC5
:1030300040B28049887000E000BF23E07748007804
:1030400003281FD177480078012804D0022809D02E
:10305000032815D10DE078480078401E40B276492B
:1030600008700EE074484078401E40B272494870C3
:1030700007E071488078401E40B26F49887000E0D8
:1030800000BF00BF66480078012804D0022815D090
:10309000032839D125E010232A2202210020FFF73E
:1030A0006BFA1023202204210020FFF765FA102379
:1030B000202206210020FFF75FFA25E010232022BE
:1030C00002210020FFF758FA10232A2204210020B1
:1030D000FFF752FA1023202206210020FFF74CFAB6
:1030E00012E01023202202210020FFF745FA1023CE
:1030F000202204210020FFF73FFA10232A22062174
:103100000020FFF739FA00BF00BF454800780128CA
:1031100003D102204A4908700EE041480078022895
:1031200003D104204649087006E03D480078032892
:1031300002D10620424908703A480078012804D09C
:1031400002280AD0032818D10FE010233DA23C48E2
:1031500001783C2001F030FF10E0102339A23848FC
:103160000178542001F028FF08E0102335A23448EC
:1031700001786C2001F020FF00E000BF00BF2C4A66
:10318000921C511E481E00F08BF82A4A921C511EB8
:10319000481E00F085F8284A921C511E481E00F077
:1031A0007FF8234890F902000090214890F90130FF
:1031B00090F9002024A10CA800F07AFC10230CAA9E
:1031C0000221382001F0F8FE1A4890F90200009020
:1031D000184890F9013090F900201BA107A800F0D1
:1031E00067FC102307AA0421382001F0E5FE1248ED
:1031F00090F902000090104890F9013090F90020F9
:1032000011A102A800F054FC102302AA06213820C4
:1032100001F0D2FE11B000BD6900002016000020B0
:1032200017000020180000206C0000206A00002019
:103230000D00002010000020130000206B00002073
:10324000190000205F0000002532643A2532643AFC
:103250002532640000200E49887148710871C870D9
:10326000087088700A200B490870142048700020EC
:1032700088700B200849087014204870002088705E
:103280000C20064908701420487000208870704790
:10329000040000200D00002010000020130000207A
:1032A00090F90030172B01DD0023037091F90030F5
:1032B0003B2B01DD00230B7092F900303B2B01DD2D
:1032C0000023137090F90030002B01DA17230370EC
:1032D00091F90030002B01DA3B230B7092F900309A
:1032E000002B01DA3B2313707047000010B58CB03F
:1032F00015220021202001F0E7FD162200213020B8
:1033000001F0E2FD10220021402001F0DDFD11223C
:103310000021502001F0D8FD15220221102001F0DB
:10332000D3FD16220221202001F0CEFD10233A22E7
:1033300002213020FFF720F917220421102001F08C
:10334000C3FD18220421202001F0BEFD10233A22E3
:1033500004213020FFF710F9BE48007898B1BE482C
:103360000078401CBC49087008460078032801D149
:1033700001200870B8480078B84908700020B849A2
:103380000870B4490870B748007868B1B44800784C
:10339000401CB349087008460078042801D1002079
:1033A00008700020AF490870AF480078002844D06A
:1033B0000020AD490870A848007801281CD1A84811
:1033C0000078012804D0022808D0032812D10BE08D
:1033D000A648C088401CA549C8800CE0A3480089C5
:1033E000401CA249088106E0A0484089401C9F4932
:1033F000488100E000BF20E09748007802281CD1F7
:1034000097480078012804D0022808D0032812D158
:103410000BE096480088401C944908800CE09348D3
:103420004088401C9149488006E090488088401CB4
:103430008E49888000E000BF00BF8D4800780028DA
:1034400044D000208A4908708348007801281CD1A4
:1034500083480078012804D0022808D0032812D11C
:103460000BE08248C088401E8049C8800CE07F483D
:103470000089401E7D49088106E07C484089401E45
:103480007A49488100E000BF20E0734800780228B4
:103490001CD173480078012804D0022808D00328E2
:1034A00012D10BE071480088401E704908800CE082
:1034B0006E484088401E6D49488006E06B48808811
:1034C000401E6A49888000E000BF00BF6348007862
:1034D000012804D0022815D0032839D125E0102373
:1034E0002A2202210020FFF747F81023202204217E
:1034F0000020FFF741F81023202206210020FFF7CB
:103500003BF825E01023202202210020FFF734F8A9
:1035100010232A2204210020FFF72EF81023202256
:1035200006210020FFF728F812E0102320220221B4
:103530000020FFF721F81023202204210020FFF7AC
:103540001BF810232A2206210020FFF715F800BFE0
:1035500000BF42480078012803D102204549087085
:1035600006E03E480078022802D104204149087054
:103570003B480078012804D002280AD0032818D13B
:103580000FE010233CA23B4801783C2001F014FDE1
:1035900010E0102338A237480178542001F00CFDC8
:1035A00008E0102334A2334801786C2001F004FDB8
:1035B00000E000BF00BF28480078012803D026485B
:1035C0000078022805D12648007810B1FEF7B6FE33
:1035D00001E0FEF78FFE2548C088172802DD002095
:1035E0002249C880214800893B2802DD00201F496C
:1035F00008811E4840893B2802DD00201B49488184
:103600001A484089009019480389C2881BA107A85D
:1036100000F04EFA102307AA0221382001F0CCFC5A
:10362000124800884FF4FA6190FBF1F201FB12049A
:103630000E48808800900D484388224612A102A8B7
:1036400000F036FA102302AA0421382001F0B4FC5D
:103650000CB010BD690000201A0000201B000020E3
:103660001C0000206C0000206A0000204E0000209A
:103670006B0000201D0000205F0000002532643A2E
:103680002532643A253264002532642D2532642DBA
:103690002532640010B540F22551054800F06EF85F
:1036A00020B140F22551024800F040F810BD000062
:1036B0000038014010B540F22551184800F05EF87E
:1036C00050B31748008858B9144800F013F9154949
:1036D000154A1278885414480078401C1249087022
:1036E00011480078022812DB0F480078401E0D496F
:1036F000085C0D280BD100210B480078401E094AB8
:10370000115401200649088000200749087040F242
:103710002551024800F00AF810BD000000480040A2
:1037200026000020C00100202400002010B5002247
:10373000002340F66A14A14200D100BF0A120124FE
:103740009440A3B2DC43048010BD21B1828942F4CD
:103750000052828104E082894DF6FF731A40828113
:10376000704702460020B1F5007F00D100BF1388EA
:103770000B400BB1012000E00020704770B50246FD
:10378000002400230025002040F66A16B14200D133
:1037900000BFC1F3421501F01F03012606FA03F32F
:1037A000012D02D19689334006E0022D02D1168AFE
:1037B000334001E0968A33400C12012606FA04F4E5
:1037C0001688344013B10CB1012000E0002070BD18
:1037D000F0B50346002400260025002040F66A17B5
:1037E000B94200D100BF1846C1F3421401F01F06D0
:1037F000012707FA06F5012C01D10C3004E0022C58
:1038000001D1103000E014301AB107682F4307606F
:1038100002E00768AF430760F0BD00002DE9F04704
:1038200086B005460E460024A24600BFA1460027EA
:10383000B08900B100BF2F462C8A4CF6FF700440BF
:10384000F08804432C82AC894EF6F3100440B08813
:1038500031890843718908430443AC81AC8A4FF62F
:10386000FF400440B0890443AC8201A8FEF7F4FE97
:103870001F48874202D1DDF810A001E0DDF80CA05E
:10388000A88900F4004040B10AEBCA0000EB0A101E
:1038900031684900B0FBF1F807E00AEBCA0000EB21
:1038A0000A1031688900B0FBF1F86420B8FBF0F031
:1038B00004012009642101FB1089A88900F400405B
:1038C00040B1322000EBC900B0FBF1F000F007007E
:1038D000044308E0322000EB09106421B0FBF1F052
:1038E00000F00F0004432C8106B0BDE8F087000013
:1038F0000038014001468888C0F30800704770B561
:1039000004460D46C5F30800A08000BF8021204674
:10391000FFF727FF0028F9D070BDC1F308028280AD
:10392000704700BFFEE7000010B586B004460121D5
:103930000820FEF781FE01218804FEF76DFE4FF49A
:103940008060ADF8140018208DF8170003208DF862
:10395000160005A91E48FDF74FFC4FF40060ADF8B6
:10396000140004208DF8170005A91948FDF744FC40
:1039700001940020ADF80800ADF80A00ADF80C0085
:10398000ADF810000C20ADF80E0027208DF80000D7
:1039900000208DF8010002208DF8020001208DF832
:1039A00003006846FEF792FD012240F225510948C6
:1039B000FFF70EFF01A90748FFF730FF0121054877
:1039C000FFF7C3FE00200449088006B010BD0000C8
:1039D000000C0140004800402600002070B504465D
:1039E0000D4629462046FFF798FF00BF802120465C
:1039F000FFF7B7FE0028F9D070BD00002DE9F041B7
:103A000005462C464FF480511248FDF789FC0026EC
:103A10001CE0274607F08007802F04D139010D48AC
:103A2000FDF780FC04E04FF400610A48FDF778FCE4
:103A30006006040E4FF480510648FDF773FC4FF406
:103A400080510448FDF76CFC701CC6B2082EE0DB08
:103A5000BDE8F0810008014010B50446FDF716FEF0
:103A60007820FFF7CBFFFDF73DFE0020FFF7C6FFF4
:103A7000FDF738FE2046FFF7C1FFFDF733FEFDF7E7
:103A80001DFE10BD10B50446FDF700FE7820FFF7BF
:103A9000B5FFFDF727FE4020FFF7B0FFFDF722FE40
:103AA0002046FFF7ABFFFDF71DFEFDF707FE10BD3B
:103AB0000FB4084B10B504A902AA039800F000F94E
:103AC000044602A9002000F07EFC204610BC5DF8F0
:103AD00014FB0000C743000837B514460846064BE0
:103AE0006A46214600F0ECF804466946002000F0E2
:103AF0006AFC20463EBD0000C743000800487047EE
:103B0000B80000200022134610461146FCF7FDBC09
:103B100002E008C8121F08C1002AFAD17047704796
:103B2000002001E001C1121F002AFBD170470000F4
:103B30000149086070470000B80000202DE9FF5FD0
:103B400082B00021DDE90430020DDDF840B003430E
:103B500018D044F61050A2F2FF32424315141198C7
:103B600001281FD0A5EB0B00401C5FEA000A4FF0B4
:103B700000064E4FDFF83891B046504615D5CAF1D1
:103B8000000413E0119801244AA3012801D16FEA2F
:103B90000B010298119AC0E90031C0E9024206B057
:103BA000BDE8F09FCBF10000DFE704460021404A6A
:103BB000491842EB0450CDE9001012E0E00707D0AD
:103BC00032463B4640464946FCF72DFC8046894636
:103BD00032463B4610461946FCF725FC06460F4682
:103BE0006410002CEAD1DDE90401DDE90023BAF11B
:103BF000000F06DAFCF717FC42464B46FCF713FCB5
:103C000005E0FCF782FC42464B46FCF77EFC04468E
:103C10000E460022284BFCF73DFD03D84FF0FF3045
:103C2000014607E00022254B20463146FCF754FBB5
:103C3000FCF70BFF102409E0002C0ADB0A2200230A
:103C4000FCF756FD039B30321A55641E50EA010200
:103C5000F2D1641C039AC4F111031444119A012A8D
:103C600003D0012208430DD10AE0084304D000200C
:103C70004FF0110B119072E7A3EB0B056D1E0DE0D9
:103C80005B4504DD4FF0000205F1010504E003DAB5
:103C90004FF00002A5F10105002AECD0029811991D
:103CA000C0E90231C0E9004579E700000000144096
:103CB0000000F03F300000000000F0430000E03F53
:103CC0002DE9FF4F95B09A46884606460025EEE15D
:103CD000252877D100242746F94A0121039400E0E2
:103CE000044316F8013F203B01FA03F01042F7D1DC
:103CF00030782A2811D06FF02F033078A0F13002ED
:103D0000092A16D8039A44F0020402EB820203EB5C
:103D100042021044761C0390EFE758F8042B0392FC
:103D2000002A03DA504244F40054039044F00204A1
:103D3000761C30782E2816D116F8010F44F00404B2
:103D40002A280DD06FF02F023078A0F13003092B14
:103D500009D807EB870302EB4303C718761CF3E788
:103D600058F8047B761C30786C280FD006DC4C2881
:103D700017D068280DD06A2814D104E0742810D018
:103D80007A280FD10DE044F400140AE044F48014C2
:103D900001E044F440147278824202D104F58014A8
:103DA000761C761C307866280BD013DC582877D028
:103DB00009DC002875D04528F6D04628F4D04728DD
:103DC0001AD193E118E0632835D0642879D06528AA
:103DD00012D18BE1702873D008DC6728F1D06928F4
:103DE0006FD06E280DD06F2806D1ACE073282CD090
:103DF000752874D0782853D05246179990476D1C77
:103E000054E1C4F30250022809D003280DD0D8F899
:103E1000001004280DD00D6008F1040846E1D8F820
:103E20000010EA17C1E90052F6E7D8F800100D803B
:103E3000F2E70D70F0E718F8041B8DF80010002071
:103E40008DF80100EB46012003E058F804BB4FF069
:103E5000FF3061074FF0000102D40DE009F10101CC
:103E60008946B9420FDA8145F8DB1BF809100029B1
:103E7000F4D108E009F1010189468142FADB1BF81F
:103E800009100029F6D103985346A0EB09072146F3
:103E90003846179A00F080FA284400EB090507E03D
:103EA00044E008E10DE01BF8010B524617999047DA
:103EB000B9F10109F7D2534621463846179AF2E084
:103EC00039E00A21C4F302524FF0000B0091022A9C
:103ED00006D058F8040BC117032A09D00AE023E0E2
:103EE00008F1070020F00702F2E80201904605E021
:103EF00000B2C117042A01D140B2C117002906DA65
:103F00000A460021404261EB02012D2202E0220517
:103F100004D52B228DF80420012203E0E20701D012
:103F20002022F7E7914657E00A2100E010214FF0E8
:103F3000000B00910BE010214FF0000B44F0040443
:103F40000827009103E008204FF0000B0090C4F315
:103F50000252022A05D058F8040B0021032A08D087
:103F600008E008F1070020F00702F2E8020190469D
:103F700003E080B2042A00D1C0B24FF0000922074A
:103F80002AD53278702A07D0DDF800C08CF0100CEA
:103F90005CEA0B0C05D00EE040228DF804200122D3
:103FA00008E050EA010306D030238DF804308DF884
:103FB000052002229146009B83F0080353EA0B037D
:103FC0000AD150EA010201D1620705D530228DF8ED
:103FD00004204FF001097F1E3278582A04D039A2FC
:103FE0000C920CAA02920BE03BA2F9E75B46009A06
:103FF000FCF77EFB0C9B9B5C029A521E0292137094
:1040000050EA0102F2D1029804A9081A00F1200B2B
:10401000600702D524F4803400E001275F4502DD0B
:10402000A7EB0B0000E0002000EB0B0100900398D1
:104030004944401A0390E00306D453462146179A98
:10404000039800F0A9F90544002706E001A85246AC
:10405000C05D179990476D1C7F1C4F45F6DBE00350
:104060000CD553462146179A039800F095F905445C
:1040700004E030205246179990476D1C0099481E65
:1040800000900029F5DC08E0029802995246007879
:10409000491C0291179990476D1CBBF10001ABF1CF
:1040A000010BF1DC5BE100F065F90544761C30782A
:1040B00000287FF40DAE19B02846BDE8F08F00004F
:1040C00009280100303132333435363738396162EE
:1040D00063646566000000003031323334353637B2
:1040E000383941424344454600000000600700D48F
:1040F000062708F1070020F00700F0E802238046B9
:1041000003F0004C5FEA0C0001D097A009E0200505
:1041100001D596A005E0E00701D095A001E0AFF23F
:104120004C001390307823F0004365280CD006DC57
:10413000452809D046281DD047287FD13BE0662876
:1041400018D067287AD136E00021112F01DB112029
:1041500000E0781CCDE9000104A90CA8FFF7EEFCF3
:10416000DDE90D010C9A4FF0000B07F101091092E7
:1041700000914EE04FF000400097CDE9011004A9F6
:104180000CA8FFF7DBFCDDE90D020C9B0F994FF04B
:10419000000B91461093009211B9791C00EB0109B4
:1041A000B7EB090003D4C0F1FF3B07F10109A9EB0C
:1041B0000700019042E0012F00DA01270021112FB2
:1041C00001DD112000E03846CDE9000104A90CA86A
:1041D000FFF7B4FCDDE90D010C9A00914FF0000BE4
:1041E000B946109221070FD4009A4A4503DA914646
:1041F00001E0A9F10109B9F1010F05DD109AA9F15A
:104200000101515C3029F4D0B84202DA10F1040FF8
:1042100003DA0121CDE9011010E0002803DC83441A
:10422000A9EB000102E0411C494500DD8946A0EBF5
:104230000B00401C01904FF000400290200705D475
:104240000198484502DB4FF0FF30019000208DF8C7
:104250004B0002980DF14B07B0F1004F25D0022022
:104260000C902B200D90029800280CDA404202900E
:104270002D200D9007E00A210298FCF723FA303137
:10428000029007F8011D0C99481E0C900029F2DCE1
:1042900002980028EFD1791E0D980870307800F050
:1042A000200040F0450007F8020D11A8C01BC01DFA
:1042B00002901398007800B1012000EB09010198E9
:1042C00001EBE071029801440398401A401E0390EC
:1042D000E00306D453462146179A039800F05CF891
:1042E00005441398007818B15246179990476D1CF1
:1042F000E00323D553462146179A039800F04CF863
:1043000005441BE0BBF1000F07DB0098584504DDB6
:104310001098179910F80B0001E0179930205246B9
:10432000904701980BF1010B401E05F1010501902A
:1043300004D12E205246179990476D1CB9F1000107
:10434000A9F10109DEDC05E017F8010B52461799C7
:1043500090476D1C0299481E02900029F4DC5346D8
:104360002146179A03989EE62D0000002B000000BE
:10437000200000002DE9F041044600251E461746A6
:10438000880404D405E039462020B0476D1C641E23
:10439000F9D52846BDE8F0812DE9F0410446002515
:1043A0001E469046C80301D5302700E02027880428
:1043B00004D505E041463846B0476D1C641EF9D56A
:1043C0002846BDE8F0810A68531C0B6010707047E6
:1043D000F0B58DB006460F4614463022144901A8A8
:1043E000FBF7F6FEE11704EB91718910A4EB810154
:1043F00029B9642194FBF1F201FB124131B94FF468
:10440000C87194FBF1F201FB124109B91D20029021
:104410000025002004E001A951F820100D44401CA3
:10442000711E8142F7DC3D4428460DB0F0BD00000E
:1044300014FD00082DE9FF478246AAF10100FCF7B0
:10444000D8F880460022194BFCF75FF804460D4669
:1044500022462B4616481749FBF7E5FF80462246C1
:104460002B46FBF7E0FF22462B46CDE9020112481E
:104470001249FBF7D8FF8046114A124BFBF72CFF7D
:10448000CDE90001DDE90223FBF726FF06460F46D2
:1044900000220D4B3046394600F086F806460F469E
:1044A0003046394604B0BDE8F087000000D47640BD
:1044B000C0AB8A15DADE333F2F8672A21894E14032
:1044C00046CEC29E768771400080764010B56FF070
:1044D0000400FEF723FB0A4800680A49B0FBF1F02C
:1044E000094908700846007800EB4001C1EBC01094
:1044F0004FF6FF7101EAC0000449088010BD0000BA
:104500009000002000127A005C0000205E00002075
:104510000146114A12884A434FF0E0235A610022B3
:104520009A611A46126942F001021A6100BF4FF007
:10453000E022106900F001021AB100F48032002A72
:10454000F5D04FF0E022126922F001024FF0E02393
:104550001A6100229A6170475E0000200146114AEC
:1045600012784A434FF0E0235A6100229A611A46BA
:10457000126942F001021A6100BF4FF0E022106997
:1045800000F001021AB100F48032002AF5D04FF099
:10459000E022126922F001024FF0E0231A610022AA
:1045A0009A6170475C00002070B514461D460E46A7
:1045B000002814BF01210021314321F00041C1F145
:1045C0007F6101F1E041C90F16D1002C14BF012118
:1045D0000021294321F00041C1F17F6101F1E04157
:1045E000C90F09D11449B1EB460F08BF00281CD0F0
:1045F000690008BF002C18D03146FCF7E3F90246E9
:1046000040F2FF7030EA11500DD0F017B0EBE17FAF
:1046100009D0084665F31E0084460B4620466146D5
:10462000FBF7FEFE0246104670BD0120FFF780FA40
:10463000BDE87040FFF766BA0000E0FF2DE9F047E3
:1046400004460D461646324629462046FFF7C0FE70
:1046500081464846FFF7EEFE074688463846414603
:1046600000F002F8BDE8F08770B504460D46002260
:10467000134620462946FCF70DF808D80022B54B12
:1046800020462946FBF7EEFF01D2012070BD002233
:10469000B04B20462946FBF7FDFF08D80022AE4B61
:1046A00020462946FBF7DEFF01D20220EEE700227A
:1046B000A94B20462946FBF7EDFF08D80022A74B5F
:1046C00020462946FBF7CEFF01D20320DEE7002279
:1046D000A24B20462946FBF7DDFF08D80022A04B5D
:1046E00020462946FBF7BEFF01D20420CEE7002278
:1046F0009B4B20462946FBF7CDFF08D80022994B5B
:1047000020462946FBF7AEFF01D20520BEE7002276
:10471000944B20462946FBF7BDFF08D80022924B58
:1047200020462946FBF79EFF01D20620AEE7002275
:104730008D4B20462946FBF7ADFF08D800228B4B56
:1047400020462946FBF78EFF01D207209EE7002274
:10475000864B20462946FBF79DFF08D80022844B54
:1047600020462946FBF77EFF01D208208EE7002273
:104770007F4B20462946FBF78DFF08D800227D4B52
:1047800020462946FBF76EFF01D209207EE7002272
:10479000784B20462946FBF77DFF08D80022764B50
:1047A00020462946FBF75EFF01D20A206EE7002271
:1047B000714B20462946FBF76DFF08D800226F4B4E
:1047C00020462946FBF74EFF01D20B205EE7002270
:1047D0006A4B20462946FBF75DFF08D80022684B4C
:1047E00020462946FBF73EFF01D20C204EE700226F
:1047F000634B20462946FBF74DFF08D80022614B4A
:1048000020462946FBF72EFF01D20D203EE700226D
:104810005C4B20462946FBF73DFF08D800225A4B47
:1048200020462946FBF71EFF01D20E202EE700226C
:10483000554B20462946FBF72DFF08D80022534B45
:1048400020462946FBF70EFF01D20F201EE700226B
:104850004E4B20462946FBF71DFF08D800224C4B43
:1048600020462946FBF7FEFE01D210200EE700226B
:10487000474B20462946FBF70DFF08D80022454B41
:1048800020462946FBF7EEFE01D21120FEE600226B
:10489000404B20462946FBF7FDFE08D800223E4B40
:1048A00020462946FBF7DEFE01D21220EEE600226A
:1048B000394B20462946FBF7EDFE08D80022374B3E
:1048C00020462946FBF7CEFE01D21320DEE6002269
:1048D000324B20462946FBF7DDFE08D80022304B3C
:1048E00020462946FBF7BEFE01D21420CEE6002268
:1048F0002B4B20462946FBF7CDFE08D80022294B3A
:1049000020462946FBF7AEFE01D21520BEE6002266
:10491000244B20462946FBF7BDFE08D80022224B37
:1049200020462946FBF79EFE01D21620AEE6002265
:104930001D4B20462946FBF7ADFE08D800221B4B35
:1049400020462946FBF78EFE01D217209EE618204E
:104950009CE6000000002E4000003E4000804640E3
:1049600000004E4000C052400080564000405A4077
:1049700000005E4000E0604000C0624000A0644073
:10498000008066400060684000406A4000206C4043
:1049900000006E4000E06F4000E0704000D07140C9
:1049A00000C0724000B0734000A074400090754099
:1049B00010B50F48006820F070400D4908600846A7
:1049C000006840F04050086000200A4908600A4929
:1049D000C1F89C010520FFF7C1FD012005490860D1
:1049E0000520FFF7BBFD00200349C1F8980110BD69
:1049F00000080140980121420000214208B5012130
:104A00000420FDF719FEC020ADF8000014208DF839
:104A1000030001208DF8020069460448FCF7ECFB16
:104A2000C0210248FCF77EFC08BD000000080140E0
:104A300010B51048006820F070400E490860084624
:104A4000006840F04050086000200B4908600120D9
:104A50000A49C1F89C010520FFF780FD01200649A5
:104A600008600520FFF77AFD00200449C1F898018D
:104A700010BD0000000801409801214200002142C1
:104A800070B505461648006820F07040144908606B
:104A90000846006840F000400860002616E000204C
:104AA000104908600520FFF759FD01200E49C1F8A3
:104AB00098016006040E0B487C38006808B1601C41
:104AC000C4B20520FFF74AFD701CC6B2082EE6DB13
:104AD00015B9FFF7ADFF01E0FFF76AFF204670BD93
:104AE00000080140980121420000214270B50446AF
:104AF0001548006820F070401349086008460068B7
:104B000040F040500860002010490860002517E080
:104B1000E0090E49091D08606006040E0520FFF734
:104B20001DFD01200A49C1F898010520FFF716FD77
:104B30000020064908600520FFF710FD681CC5B27B
:104B4000082DE5DB70BD00000008014098012142FE
:104B50000000214210B50F48006820F070400D4958
:104B600008600846006840F04050086001200A498B
:104B700008600A49C1F898010520FFF7EFFC002002
:104B8000054908600520FFF7E9FC00200349C1F84A
:104B9000980110BD000801409C0121420000214203
:104BA00010B50F48006820F070400D4908600846B5
:104BB000006840F04050086000200A4908600A4937
:104BC000C1F89C010520FFF7C9FC012005490860D8
:104BD0000549C1F89C010520FFF7C0FC10BD00008D
:104BE00000080140980121420000214210B51548FB
:104BF000006820F07040134908600846006840F0E3
:104C0000004008600120104908600520FFF7A6FC5D
:104C100001200E49C1F898010520FFF79FFC07E02D
:104C2000601C84B2FA2C03DDFFF7BAFF002010BD30
:104C30000548803800680028F2D10349091F086040
:104C40000120F4E7000801409C01214200002142BC
:104C50001CB5FFF73BFCFDF7DEFB4FF4A060FDF752
:104C60006DFCFDF791FB4FF41650FEF75DFEFDF76E
:104C700035FAFCF76DF800F08DF8FBF7FDFFFCF757
:104C800005FAFDF7F9F8FEF7E5FA40F60F61632043
:104C9000FDF78AFFFDF7F4FA1AE0FDF775FA0D4902
:104CA00008600D48FCF74AFAFDF77EFA0B480078D9
:104CB00070B108490868FBF7C1FCCDE9000106485E
:104CC0000278817806A000F041FA002003490870BC
:104CD000E3E70000000000208A000020040000201C
:104CE00053656E736F72313A2564232C53656E736E
:104CF0006F72323A2564232C53656E736F72333AA8
:104D0000252E3266230000002DE9F04782460E462C
:104D100090461C46B14655463046FBF77DFA07469D
:104D2000B84501DDA7EB0408002C00DA0024BC42E2
:104D300002DD0020BDE8F087A14403E019F8010B73
:104D400005F8010BB8F10000A8F10108F6D105F84B
:104D5000010B5046EEE770B5002418E004F1B000F6
:104D60000021FDF745FC00210846FDF741FC00212C
:104D70001020FDF73DFC002505E001210020FDF796
:104D800037FC681CC5B2802DF7DB601CC4B2082C50
:104D9000E4DB70BD08B501210420FDF74DFC1020B7
:104DA0008DF8030003208DF802004FF48050ADF819
:104DB000000069464348FCF71FFA4FF40060ADF865
:104DC000000069463F48FCF717FA4FF480513D4810
:104DD000FCF7A8FA4FF400613A48FCF7A3FA4FF445
:104DE000C870FCF7FCF90021AE20FDF701FC0021A2
:104DF0000846FDF7FDFB00211020FDF7F9FB00211F
:104E00004020FDF7F5FB0021B020FDF7F1FB00216C
:104E10008120FDF7EDFB0021FF20FDF7E9FB0021DC
:104E2000A120FDF7E5FB0021A620FDF7E1FB002115
:104E3000A820FDF7DDFB00213F20FDF7D9FB002175
:104E4000C820FDF7D5FB0021D320FDF7D1FB0021C1
:104E50000846FDF7CDFB0021D520FDF7C9FB002159
:104E60008020FDF7C5FB0021D820FDF7C1FB002104
:104E70000520FDF7BDFB0021D920FDF7B9FB00217E
:104E8000F120FDF7B5FB0021DA20FDF7B1FB002191
:104E90001220FDF7ADFB0021DB20FDF7A9FB00216F
:104EA0003020FDF7A5FB00218D20FDF7A1FB00219F
:104EB0001420FDF79DFB0021AF20FDF799FBFFF7C4
:104EC0004AFF08BD000801402DE9F04180460E462A
:104ED0001546002731464046FDF73AFB00240AE01C
:104EE000124A02EBC511085D0121FDF781FB781C18
:104EF000C7B2601CC4B2102CF2DB701CC1B24046B9
:104F0000FDF726FB00240CE06900491C074A02EB70
:104F10008111085D0121FDF76BFB781CC7B2601C95
:104F2000C4B2102CF0DBBDE8F0810000E491000871
:104F30002DE9FF5F074691461E460E9D4FF0000A81
:104F4000002435E0301B401EC1B20A2000F051F8A9
:104F5000B9FBF0F00A21B0FBF1F201FB1208BAF143
:104F6000000F14D1701EA04211DDB8F1000F0CD15A
:104F7000AB4605EBDB71491001FB0471C8B22B464F
:104F800020220199FDF7F8FA10E04FF0010AAB4634
:104F900005EBDB71491001FB0471C8B208F1300167
:104FA000CAB22B460199FDF7E7FA00BF601CC4B2F4
:104FB000B442C7DBBDE8FF9F2DE9F04104460F4630
:104FC0001546984600260FE0AA5D4346394620461E
:104FD000FDF7D2FA04F10800C4B2782C02DD0024F7
:104FE000B81CC7B2701CC6B2A85D0028ECD1BDE8E1
:104FF000F08110B50246012000E050430B1EA1F1E4
:105000000104E1B2F9D110BD2DE9FC4104460D4681
:10501000164601AB324629462046FCF785F908B909
:10502000BDE8FC819DF805209DF8041001EBC1034B
:1050300003EB011102EB81006946FCF709FB9DF8C7
:1050400000000A2190FBF1F201FB12003A30C7B2D6
:105050003A4604210846FFF737FF9DF800000C216F
:1050600090FBF1F201FB12004430C7B23A46042132
:105070001420FFF729FF132204212420FFF724FF27
:105080009DF80600012805D1112204213420FFF7E4
:105090001BFF07E09DF806004F30C2B20421342008
:1050A000FFF712FF092204214420FFF70DFF9DF8AE
:1050B00007000A280CDD9DF807000A2190FBF1F09B
:1050C0005C30C7B23A4604215420FFF7FDFE04E0ED
:1050D0005C2204215420FFF7F7FE9DF80700401ED4
:1050E0000A2190FBF1F201FB12004F30C7B23A46A1
:1050F00004216420FFF7E8FE00BF91E70FB438B544
:105100000024002505A800900E48009A0499FEF797
:10511000E3FC002000900B48FBF77EF8054605E015
:105120000848015D0848FEF7EAFB641CAC42F7D36F
:1051300000BF40210448FEF714FB0028F9D038BC1A
:105140005DF814FBC0000020003801400FB438B5F2
:105150000024002505A800900E48009A0499FEF747
:10516000BBFC002000900B48FBF756F8054605E015
:105170000848015D0848FEF731FC641CAC42F7D3D7
:1051800000BF40210448FEF7ECFA0028F9D038BCF3
:105190005DF814FB7006002000480040000000008D
:1051A00000000000002F00000000070007000014AE
:1051B0007F147F1400242A7F2A12006264081323BC
:1051C00000364955225000000503000000001C2253
:1051D0004100000041221C000014083E0814000891
:1051E000083E0808000000A0600000080808080841
:1051F000000060600000002010080402003E5149D9
:10520000453E0000427F4000004261514946002176
:1052100041454B31001814127F1000274545453990
:10522000003C4A49493000017109050300364949EB
:10523000493600064949291E0000363600000000A4
:1052400056360000000814224100001414141414EF
:105250000000412214080002015109060032495998
:10526000513E007C1211127C007F49494936003EB4
:1052700041414122007F4141221C007F494949416F
:10528000007F09090901003E4149497A007F080869
:10529000087F0000417F4100002040413F01007F26
:1052A00008142241007F40404040007F020C027FF2
:1052B000007F0408107F003E4141413E007F090904
:1052C0000906003E4151215E007F0919294600462A
:1052D000494949310001017F0101003F4040403F01
:1052E000001F2040201F003F4038403F006314084B
:1052F0001463000708700807006151494543000026
:105300007F41410000552A552A55000041417F0048
:10531000000402010204004040404040000001023D
:105320000400002054545478007F48444438003826
:105330004444442000384444487F003854545418AE
:1053400000087E0901020018A4A4A47C007F0804C0
:1053500004780000447D4000004080847D00007F90
:10536000102844000000417F4000007C04180478AD
:10537000007C0804047800384444443800FC2424A9
:1053800024180018242418FC007C08040408004891
:105390005454542000043F444020003C4040207CB2
:1053A000001C2040201C003C4030403C00442810A1
:1053B0002844001CA0A0A07C004464544C44141455
:1053C000141414140000000000000000000000008D
:1053D00000000000000000F80000000000000033A2
:1053E0003000000000100C06100C06000000000049
:1053F0000000000040C07840C0784000043F040432
:105400003F040400007088FC08300000001820FFF2
:10541000211E0000F008F000E018000000211C032D
:105420001E211E0000F00888700000001E212324A9
:105430001927211010160E000000000000000000C7
:1054400000000000000000E0180402000000000757
:105450001820400000020418E0000000004020185E
:1054600007000000404080F0804040000202010F31
:1054700001020200000000F0000000000101011F15
:1054800001010100000000000000000080B0700079
:105490000000000000000000000000000001010109
:1054A0000101010100000000000000000030300098
:1054B0000000000000000000806018040060180672
:1054C0000100000000E010080810E000000F1020AC
:1054D00020100F00001010F8000000000020203FF6
:1054E0002020000000700808088870000030282480
:1054F0002221300000300888884830000018202021
:1055000020110E000000C02010F800000007042445
:10551000243F240000F8088888080800001921208A
:1055200020110E0000E0108888180000000F1120E4
:1055300020110E0000380808C83808000000003F9D
:10554000000000000070880808887000001C2221FC
:1055500021221C0000E010080810E00000003122A9
:1055600022110F00000000C0C00000000000003049
:10557000300000000000008000000000000080609B
:10558000000000000000804020100800000102041C
:105590000810200040404040404040000404040403
:1055A00004040400000810204080000000201008BF
:1055B00004020100007048080808F00000000030F4
:1055C00036010000C030C828E810E0000718272482
:1055D00023140B000000C038E0000000203C230230
:1055E0000227382008F8888888700000203F202093
:1055F00020110E00C03008080808380007182020C5
:105600002010080008F808080810E000203F2020BB
:1056100020100F0008F88888E8081000203F20209C
:105620002320180008F88888E8081000203F200090
:1056300003000000C03008080838000007182020C8
:10564000221E020008F808000008F808203F210187
:1056500001213F20000808F8080800000020203F32
:105660002020000000000808F8080800C0808080A2
:105670007F00000008F888C028180800203F20019B
:105680002638200008F8080000000000203F2020F5
:105690002020300008F8F800F8F80800203F003F0C
:1056A000003F200008F830C00008F808203F200024
:1056B00007183F00E01008080810E0000F10202035
:1056C00020100F0008F808080808F000203F21010A
:1056D00001010000E01008080810E0000F18242461
:1056E00038504F0008F8888888887000203F2000D4
:1056F000030C30200070880808083800003820218A
:1057000021221C00180808F8080818000000203F93
:105710002000000008F808000008F808001F2020FA
:1057200020201F000878880000C8380800000738CB
:105730000E010000F80800F80008F800033C07001C
:10574000073C0300081868808068180820302C0384
:10575000032C30200838C800C83808000000203F5B
:105760002000000010080808C8380800203826214A
:1057700020201800000000FE020202000000007F4E
:1057800040404000000C30C000000000000000015C
:105790000638C00000020202FE0000000040404047
:1057A0007F0000000000040202020400000000006C
:1057B00000000000000000000000000080808080E9
:1057C00080808080000202040000000000000000D1
:1057D000000000000000808080800000001924226A
:1057E00022223F2008F8008080000000003F1120A6
:1057F00020110E000000008080800000000E1120AB
:1058000020201100000000808088F800000E112088
:1058100020103F200000808080800000001F222296
:1058200022221300008080F0888888180020203F02
:10583000202000000000808080808000006B949415
:105840009493600008F8008080800000203F2100D1
:1058500000203F2000809898000000000020203F9A
:1058600020200000000000809898000000C0808088
:10587000807F000008F8000080808000203F240224
:105880002D302000000808F8000000000020203F14
:10589000202000008080808080808000203F2000C9
:1058A0003F20003F8080008080800000203F21005A
:1058B00000203F200000808080800000001F20200A
:1058C00020201F00808000808000000080FFA12039
:1058D00020110E000000008080808000000E11204A
:1058E00020A0FF80808080008080800020203F21D9
:1058F000200001000000808080808000003324248C
:1059000024241900008080E0808000000000001F37
:10591000202000008080000000808000001F2020E8
:1059200020103F20808080000080808000010E30A9
:105930000806010080800080008080800F300C030A
:105940000C300F0000808000808080000020312E0D
:105950000E312000808080000080808080818E70E9
:105960001806010000808080808080000021302C9B
:105970002221300000000000807C020200000000B4
:10598000003F404000000000FF0000000000000059
:10599000FF0000000002027C800000000040403F49
:1059A00000000000000601010202040400000000E3
:1059B0000000000000448C1800FCA4A4A4A4A4A42B
:1059C00024FC0000000000000000000000000000B7
:1059D00000000000000000000000000000000000C7
:1059E00000000000000000000000000000000000B7
:1059F0000000000000C03887F88484FC8484FC84A4
:105A000085FC800000000000000000000000000095
:105A10000000000000000000000000000000000086
:105A20000000000000000000000000000000000076
:105A3000000000000040841810FCA4A4A4A4A4A4A6
:105A4000A4FC0000000000000000000000000000B6
:105A50000000000000000000000000000000000046
:105A60000000000000000000000000000000000036
:105A70000000000000C03A85829CA0FF8080FF806B
:105A8000908C80000000000000000000000000007A
:105A90000000000000000000000000000000000006
:105AA00000000000000000000000000000000000F6
:105AB0000000000000F0082828F828282C2828F8E2
:105AC000282808000000000000000000000000007E
:105AD00000000000000000000000000000000000C6
